{
  "contractName": "Zegara",
  "abi": [
    {
      "inputs": [],
      "name": "counter",
      "outputs": [
        {
          "internalType": "int256",
          "name": "",
          "type": "int256"
        }
      ],
      "stateMutability": "view",
      "type": "function"
    },
    {
      "inputs": [],
      "name": "funds",
      "outputs": [
        {
          "internalType": "uint256",
          "name": "",
          "type": "uint256"
        }
      ],
      "stateMutability": "view",
      "type": "function"
    },
    {
      "inputs": [],
      "name": "test",
      "outputs": [
        {
          "internalType": "uint32",
          "name": "",
          "type": "uint32"
        }
      ],
      "stateMutability": "view",
      "type": "function"
    }
  ],
  "bytecode": "0x60806040526103e86000557ffffffffffffffffffffffffffffffffffffffffffffffffffffffffffffffff660015563ffffffff600260006101000a81548163ffffffff021916908363ffffffff16021790555034801561005f57600080fd5b5061019a8061006f6000396000f3fe608060405234801561001057600080fd5b50600436106100415760003560e01c806361bc221a14610046578063c89f2ce414610064578063f8a8fd6d14610082575b600080fd5b61004e6100a0565b60405161005b91906100db565b60405180910390f35b61006c6100a6565b604051610079919061010f565b60405180910390f35b61008a6100ac565b6040516100979190610149565b60405180910390f35b60015481565b60005481565b600260009054906101000a900463ffffffff1681565b6000819050919050565b6100d5816100c2565b82525050565b60006020820190506100f060008301846100cc565b92915050565b6000819050919050565b610109816100f6565b82525050565b60006020820190506101246000830184610100565b92915050565b600063ffffffff82169050919050565b6101438161012a565b82525050565b600060208201905061015e600083018461013a565b9291505056fea2646970667358221220c9ec3161a9eb02ff4bb7a2597cfdc628ea369d04b4c66ab49a896075b273e93f64736f6c634300080f0033",
  "immutableReferences": {},
  "source": "// SPDX-License-Identifier: MIT\npragma solidity >=0.4.22 <0.9.0;\n\ncontract Zegara {\n    // Storage Var\n    uint256 public funds = 1000;\n    int256 public counter = -10;\n    uint32 public test = (2**32) - 1;\n\n    // modifier restricted() {\n    //   require(\n    //     msg.sender == owner,\n    //     \"This function is restricted to the contract's owner\"\n    //   );\n    //   _;\n    // }\n\n    // function setCompleted(uint completed) public restricted {\n    //   last_completed_migration = completed;\n    // }\n}\n",
  "sourcePath": "D:\\Work\\MERN\\Dapp\\dappfrontend\\contracts\\Zegara.sol",
  "compiler": {
    "name": "solc",
    "version": "0.8.15+commit.e14f2714.Emscripten.clang"
  },
  "schemaVersion": "3.4.11",
  "updatedAt": "2023-01-24T13:28:31.576Z",
  "devdoc": {
    "kind": "dev",
    "methods": {},
    "version": 1
  },
  "userdoc": {
    "kind": "user",
    "methods": {},
    "version": 1
  }
}